{
  "contractName": "Contents",
  "abi": [
    {
      "inputs": [],
      "payable": false,
      "stateMutability": "nonpayable",
      "type": "constructor"
    },
    {
      "anonymous": false,
      "inputs": [
        {
          "indexed": true,
          "internalType": "uint256",
          "name": "contentId",
          "type": "uint256"
        },
        {
          "indexed": false,
          "internalType": "string",
          "name": "holderName",
          "type": "string"
        }
      ],
      "name": "AddShareInfo",
      "type": "event"
    },
    {
      "anonymous": false,
      "inputs": [
        {
          "indexed": true,
          "internalType": "uint256",
          "name": "contentId",
          "type": "uint256"
        }
      ],
      "name": "ContentActivation",
      "type": "event"
    },
    {
      "anonymous": false,
      "inputs": [
        {
          "indexed": true,
          "internalType": "uint256",
          "name": "contentId",
          "type": "uint256"
        }
      ],
      "name": "ContentDeactivated",
      "type": "event"
    },
    {
      "anonymous": false,
      "inputs": [
        {
          "indexed": false,
          "internalType": "string",
          "name": "name",
          "type": "string"
        },
        {
          "indexed": true,
          "internalType": "uint256",
          "name": "contentId",
          "type": "uint256"
        }
      ],
      "name": "ContentsCreation",
      "type": "event"
    },
    {
      "anonymous": false,
      "inputs": [
        {
          "indexed": true,
          "internalType": "uint256",
          "name": "contentId",
          "type": "uint256"
        }
      ],
      "name": "DeleteShareInfo",
      "type": "event"
    },
    {
      "anonymous": false,
      "inputs": [
        {
          "indexed": true,
          "internalType": "address",
          "name": "currentOwner",
          "type": "address"
        },
        {
          "indexed": true,
          "internalType": "address",
          "name": "newOwner",
          "type": "address"
        }
      ],
      "name": "OwnershipTransferred",
      "type": "event"
    },
    {
      "constant": true,
      "inputs": [],
      "name": "owner",
      "outputs": [
        {
          "internalType": "address",
          "name": "ownerAddress",
          "type": "address"
        }
      ],
      "payable": false,
      "stateMutability": "view",
      "type": "function"
    },
    {
      "constant": false,
      "inputs": [],
      "name": "renounceOwnership",
      "outputs": [
        {
          "internalType": "bool",
          "name": "success",
          "type": "bool"
        }
      ],
      "payable": false,
      "stateMutability": "nonpayable",
      "type": "function"
    },
    {
      "constant": false,
      "inputs": [
        {
          "internalType": "string",
          "name": "_name",
          "type": "string"
        }
      ],
      "name": "createContent",
      "outputs": [],
      "payable": false,
      "stateMutability": "nonpayable",
      "type": "function"
    },
    {
      "constant": false,
      "inputs": [
        {
          "internalType": "uint256",
          "name": "_contentId",
          "type": "uint256"
        },
        {
          "internalType": "string",
          "name": "_holderName",
          "type": "string"
        }
      ],
      "name": "addHolders",
      "outputs": [],
      "payable": false,
      "stateMutability": "nonpayable",
      "type": "function"
    },
    {
      "constant": false,
      "inputs": [
        {
          "internalType": "uint256",
          "name": "_contentId",
          "type": "uint256"
        }
      ],
      "name": "deleteHolders",
      "outputs": [],
      "payable": false,
      "stateMutability": "nonpayable",
      "type": "function"
    },
    {
      "constant": false,
      "inputs": [
        {
          "internalType": "uint256",
          "name": "_contentId",
          "type": "uint256"
        },
        {
          "internalType": "string",
          "name": "_holderName",
          "type": "string"
        }
      ],
      "name": "updateHolders",
      "outputs": [],
      "payable": false,
      "stateMutability": "nonpayable",
      "type": "function"
    },
    {
      "constant": false,
      "inputs": [
        {
          "internalType": "uint256",
          "name": "_contentId",
          "type": "uint256"
        }
      ],
      "name": "activateContent",
      "outputs": [],
      "payable": false,
      "stateMutability": "nonpayable",
      "type": "function"
    },
    {
      "constant": false,
      "inputs": [
        {
          "internalType": "uint256",
          "name": "_contentId",
          "type": "uint256"
        }
      ],
      "name": "deactivateContent",
      "outputs": [],
      "payable": false,
      "stateMutability": "nonpayable",
      "type": "function"
    },
    {
      "constant": true,
      "inputs": [
        {
          "internalType": "uint256",
          "name": "_contentId",
          "type": "uint256"
        }
      ],
      "name": "getContentInfo",
      "outputs": [
        {
          "internalType": "string",
          "name": "name",
          "type": "string"
        },
        {
          "internalType": "uint256",
          "name": "contentId",
          "type": "uint256"
        },
        {
          "internalType": "bool",
          "name": "disabled",
          "type": "bool"
        }
      ],
      "payable": false,
      "stateMutability": "view",
      "type": "function"
    },
    {
      "constant": true,
      "inputs": [
        {
          "internalType": "uint256",
          "name": "_contentId",
          "type": "uint256"
        }
      ],
      "name": "getHolderInfo",
      "outputs": [
        {
          "internalType": "string",
          "name": "holderName",
          "type": "string"
        }
      ],
      "payable": false,
      "stateMutability": "view",
      "type": "function"
    },
    {
      "constant": true,
      "inputs": [],
      "name": "contentCounter",
      "outputs": [
        {
          "internalType": "uint256",
          "name": "contentCounter",
          "type": "uint256"
        }
      ],
      "payable": false,
      "stateMutability": "view",
      "type": "function"
    }
  ],
  "bytecode": "0x6080604052600060035534801561001557600080fd5b50600080546001600160a01b0319163390811782556040519091907f8be0079c531659141344cd1fd0a4f28419497f9722a3daafe3b4186f6b6457e0908290a3610e3f806100646000396000f3fe608060405234801561001057600080fd5b50600436106100a95760003560e01c806381f2837e1161007157806381f2837e146102775780638da5cb5b146102ee578063d6bfdb2a14610312578063e6a9aba31461032f578063ee6d852d14610349578063f2d0811f146103db576100a9565b8063110a144f146100ae5780632246a86b146100cd578063497cc84114610144578063715018a6146101b45780637509c330146101d0575b600080fd5b6100cb600480360360208110156100c457600080fd5b50356103f8565b005b6100cb600480360360408110156100e357600080fd5b8135919081019060408101602082013564010000000081111561010557600080fd5b82018360208201111561011757600080fd5b8035906020019184600183028401116401000000008311171561013957600080fd5b50909250905061044d565b6100cb6004803603602081101561015a57600080fd5b81019060208101813564010000000081111561017557600080fd5b82018360208201111561018757600080fd5b803590602001918460018302840111640100000000831117156101a957600080fd5b5090925090506104e4565b6101bc610570565b604080519115158252519081900360200190f35b6101ed600480360360208110156101e657600080fd5b50356105c9565b604051808060200184815260200183151515158152602001828103825285818151815260200191508051906020019080838360005b8381101561023a578181015183820152602001610222565b50505050905090810190601f1680156102675780820380516001836020036101000a031916815260200191505b5094505050505060405180910390f35b6100cb6004803603604081101561028d57600080fd5b813591908101906040810160208201356401000000008111156102af57600080fd5b8201836020820111156102c157600080fd5b803590602001918460018302840111640100000000831117156102e357600080fd5b5090925090506106d3565b6102f661071c565b604080516001600160a01b039092168252519081900360200190f35b6100cb6004803603602081101561032857600080fd5b503561072b565b61033761077d565b60408051918252519081900360200190f35b6103666004803603602081101561035f57600080fd5b5035610784565b6040805160208082528351818301528351919283929083019185019080838360005b838110156103a0578181015183820152602001610388565b50505050905090810190601f1680156103cd5780820380516001836020036101000a031916815260200191505b509250505060405180910390f35b6100cb600480360360208110156103f157600080fd5b5035610826565b6000546001600160a01b031633146104415760405162461bcd60e51b815260040180806020018281038252602f815260200180610ddc602f913960400191505060405180910390fd5b61044a81610878565b50565b6000546001600160a01b031633146104965760405162461bcd60e51b815260040180806020018281038252602f815260200180610ddc602f913960400191505060405180910390fd5b61049f83610924565b6104df8383838080601f01602080910402602001604051908101604052809392919081815260200183838082843760009201919091525061098292505050565b505050565b6000546001600160a01b0316331461052d5760405162461bcd60e51b815260040180806020018281038252602f815260200180610ddc602f913960400191505060405180910390fd5b61056c82828080601f016020809104026020016040519081016040528093929190818152602001838380828437600092019190915250610a4692505050565b5050565b600080546001600160a01b031633146105ba5760405162461bcd60e51b815260040180806020018281038252602f815260200180610ddc602f913960400191505060405180910390fd5b6105c46000610baf565b905090565b6060600080600354841061061b576040805162461bcd60e51b815260206004820152601460248201527318dbdb9d195b9d081a5cc81b9bdd08195e1a5cdd60621b604482015290519081900360640190fd5b60008481526002602081815260409283902060018082015482850154835487516101009482161594909402600019011695909504601f81018590048502830185019096528582529194919360ff1692909185918301828280156106bf5780601f10610694576101008083540402835291602001916106bf565b820191906000526020600020905b8154815290600101906020018083116106a257829003601f168201915b505050505092509250925092509193909250565b6000546001600160a01b0316331461049f5760405162461bcd60e51b815260040180806020018281038252602f815260200180610ddc602f913960400191505060405180910390fd5b6000546001600160a01b031690565b6000546001600160a01b031633146107745760405162461bcd60e51b815260040180806020018281038252602f815260200180610ddc602f913960400191505060405180910390fd5b61044a81610924565b6003545b90565b600081815260016020818152604092839020820180548451600294821615610100026000190190911693909304601f8101839004830284018301909452838352606093909183018282801561081a5780601f106107ef5761010080835404028352916020019161081a565b820191906000526020600020905b8154815290600101906020018083116107fd57829003601f168201915b50505050509050919050565b6000546001600160a01b0316331461086f5760405162461bcd60e51b815260040180806020018281038252602f815260200180610ddc602f913960400191505060405180910390fd5b61044a81610c0f565b6000818152600260208190526040909120015460ff166108df576040805162461bcd60e51b815260206004820152601c60248201527f636f6e74656e7420697320616c72656164792061637469766174656400000000604482015290519081900360640190fd5b6000818152600260208190526040808320909101805460ff191690555182917fbf6a6fb4ce843a3103874f63696a7008f788f7e74b5885c1a489110363db4d4b91a250565b604080516020808201808452600080845285815260019283905293909320915161095393929091019190610d20565b5060405181907f1e1ba1f4aeda40b28c4217dc1b42780577e8817dba6b427eb9ac27789866dfa390600090a250565b600082815260016020818152604090922083516109a793919092019190840190610d20565b50817fb7ce401458a71cf8079fcd535b806474c3d54098f817007578c3c58f946dbb21826040518080602001828103825283818151815260200191508051906020019080838360005b83811015610a085781810151838201526020016109f0565b50505050905090810190601f168015610a355780820380516001836020036101000a031916815260200191505b509250505060405180910390a25050565b6000546001600160a01b03163314610a8f5760405162461bcd60e51b815260040180806020018281038252602f815260200180610ddc602f913960400191505060405180910390fd5b610a97610d9e565b506040805160608101825282815260035460208083018290526001838501526000918252600281529290208151805192938493610ad79284920190610d20565b5060208281015160018301556040928301516002909201805460ff1916921515929092179091556003548251828152855181840152855191937f512882de450b93ef9e78c553b2776dba213e405ae58f9920294d899d55ce631f938793839283019185019080838360005b83811015610b5a578181015183820152602001610b42565b50505050905090810190601f168015610b875780820380516001836020036101000a031916815260200191505b509250505060405180910390a2600354610ba890600163ffffffff610cbf16565b6003555050565b600080546040516001600160a01b038085169216907f8be0079c531659141344cd1fd0a4f28419497f9722a3daafe3b4186f6b6457e0908490a350600080546001600160a01b0319166001600160a01b0392909216919091179055600190565b6000818152600260208190526040909120015460ff1615610c77576040805162461bcd60e51b815260206004820152601e60248201527f636f6e74656e7420697320616c72656164792064656163746976617465640000604482015290519081900360640190fd5b6000818152600260208190526040808320909101805460ff191660011790555182917f87eca800c5aafd6414b5e7f7f64649c6a947da66c7fdcbaa2b856462d388e25b91a250565b600082820183811015610d19576040805162461bcd60e51b815260206004820152601b60248201527f536166654d6174683a206164646974696f6e206f766572666c6f770000000000604482015290519081900360640190fd5b9392505050565b828054600181600116156101000203166002900490600052602060002090601f016020900481019282601f10610d6157805160ff1916838001178555610d8e565b82800160010185558215610d8e579182015b82811115610d8e578251825591602001919060010190610d73565b50610d9a929150610dc1565b5090565b604051806060016040528060608152602001600081526020016000151581525090565b61078191905b80821115610d9a5760008155600101610dc756fe4f776e61626c65203a2046756e6374696f6e2063616c6c656420627920756e617574686f72697a656420757365722ea265627a7a72315820b37566fadaad86daf1578be295038ada09a92e1454832dbfeaa28f9adc968f0664736f6c63430005110032",
  "source": "pragma solidity ^0.5.17;\n\nimport \"./interface/IContents.sol\";\nimport \"./library/SafeMath.sol\";\nimport \"./role/Ownable.sol\";\n\ncontract Contents is IContents, Ownable {\n\n    mapping (uint256 => ShareHolders) internal _shareInfo;\n    mapping (uint256 => Contents) internal _contentList;\n\n    using SafeMath for uint256;\n\n    uint256 internal _contentCounter = 0;\n\n    struct Contents {\n        string name;\n        uint256 contentId;\n        bool disabled;\n    }\n\n    struct ShareHolders {\n        uint256 contentId;\n        string holderName;\n    }\n\n    constructor() public {}\n\n    function createContent(string calldata _name) external onlyOwner {\n        _createContent(_name);\n    }\n\n    function addHolders(uint256 _contentId, string calldata _holderName) external onlyOwner {\n        _addHolders(_contentId, _holderName);\n    }\n\n    function deleteHolders(uint256 _contentId) external onlyOwner {\n        _deleteHolders(_contentId);\n    }\n\n    function updateHolders(uint256 _contentId, string calldata _holderName) external onlyOwner {\n        _deleteHolders(_contentId);\n        _addHolders(_contentId, _holderName);\n    }\n\n    function activateContent(uint256 _contentId) external onlyOwner {\n        _activateContent(_contentId);\n    }\n\n    function deactivateContent(uint256 _contentId) external onlyOwner {\n        _deactivateContent(_contentId);\n    }\n\n    function getContentInfo(uint256 _contentId) external view returns(string memory name, uint256 contentId, bool disabled) {\n        require(_contentId < _contentCounter, 'content is not exist');\n        return(\n            _contentList[_contentId].name,\n            _contentList[_contentId].contentId,\n            _contentList[_contentId].disabled\n        );\n    }\n\n    function getHolderInfo(uint256 _contentId) external view returns(string memory holderName) {\n        return(\n            _shareInfo[_contentId].holderName\n        );\n    }\n\n    function contentCounter() external view returns(uint256 contentCounter) {\n        return(_contentCounter);\n    }\n\n    function _createContent(string memory _name) internal onlyOwner {\n        Contents memory Content = Contents({\n            name : _name,\n            contentId : _contentCounter,\n            disabled : true\n        });\n        _contentList[_contentCounter] = Content;\n        emit ContentsCreation(_name, _contentCounter);\n        _contentCounter = _contentCounter.add(1);\n    }\n\n    function _addHolders(uint256 _contentId, string memory _holderName) internal {\n        _shareInfo[_contentId].holderName = _holderName;\n        emit AddShareInfo(_contentId, _holderName);\n    }\n\n    function _deleteHolders(uint256 _contentId) internal {\n        _shareInfo[_contentId].holderName = \"\";\n        emit DeleteShareInfo(_contentId);\n    }\n\n    function _activateContent(uint256 _contentId) internal {\n        require(_contentList[_contentId].disabled, 'content is already activated');\n        _contentList[_contentId].disabled = false;\n        emit ContentActivation(_contentId);\n    }\n\n    function _deactivateContent(uint256 _contentId) internal {\n        require(!_contentList[_contentId].disabled, 'content is already deactivated');\n        _contentList[_contentId].disabled = true;\n        emit ContentDeactivated(_contentId);\n    }\n}\n",
  "sourcePath": "/Users/wookyang/Development/haechilabs/audit-BeeBlock/contracts/Contents.sol",
  "compiler": {
    "name": "solc",
    "version": "0.5.17+commit.d19bba13.Emscripten.clang"
  },
  "schemaVersion": "3.3.2",
  "updatedAt": "2021-06-18T10:08:10.921Z",
  "networkType": "ethereum",
  "devdoc": {
    "methods": {}
  },
  "userdoc": {
    "methods": {}
  }
}